:020000040800F2
:1000000000000120E50100080000000000000000E1
:10001000E1010008E1010008E10100080000000022
:10002000000000000000000000000000E1010008E6
:10003000E101000800000000E1010008E101000802
:10004000E1010008E1010008E1010008E101000808
:10005000E1010008E1010008E1010008E1010008F8
:10006000E1010008E1010008E1010008E1010008E8
:10007000E1010008E1010008E1010008E1010008D8
:10008000E1010008E1010008E1010008E1010008C8
:10009000E1010008E1010008E1010008E1010008B8
:1000A000E1010008E1010008E1010008E1010008A8
:1000B000E1010008E1010008E1010008E101000898
:1000C000E1010008E1010008E1010008E101000888
:1000D000E1010008E1010008E1010008E101000878
:1000E000E1010008E1010008E1010008E101000868
:1000F000E1010008E1010008E1010008E101000858
:10010000E1010008E1010008E1010008E101000847
:10011000E1010008E1010008E1010008E101000837
:10012000E1010008E1010008E1010008E101000827
:1001300000000000000000000000000000000000BF
:1001400000000000000000000000000000000000AF
:10015000000000000000000000000000000000009F
:10016000000000000000000000000000000000008F
:10017000000000000000000000000000000000007F
:10018000000000000000000000000000000000006F
:10019000000000000000000000000000000000005F
:1001A000000000000000000000000000000000004F
:1001B000000000000000000000000000000000003F
:1001C000000000000000000000000000000000002F
:1001D0000000000000000000000000005FF8E0F1F7
:1001E000FEE700BF684620F007018D461448154918
:1001F00008B5814209D0144B984206D2C243134439
:1002000023F00302043200F0B7FE1048104B98426E
:1002100007D2C243134423F003020432002100F04A
:1002200021FF0C4B0C4A23F0684323F07F0343F07B
:100230000063936000F0E0F800F038F8FEE700BFDC
:1002400000000020001100082800002028000020E5
:10025000300000200000000000ED00E00E490F48D3
:1002600008B5814209D00E4B984206D2C2431A44C7
:1002700022F00302043200F07FFE0A480A4B984243
:1002800009D2C2431A4422F0030204320021BDE81D
:10029000084000F0E7BE08BD001100080000002083
:1002A00028000020280000203000002080B5002712
:1002B00000F042F8B84600F013F8074E074D01244D
:1002C000C6F8008064202C6000F074F8346064206C
:1002D0002F6000F06FF8F3E7A001214288812242ED
:1002E00070B5134E82B02420012100F0D1FD4FF4EF
:1002F000807410220323304601A90E4D8DF807208B
:100300008DF80630ADF8044000F002FA3046214680
:10031000042400F0FFFB0DEB04012846ADF8044077
:1003200000F0F6F92846214600F0F4FB02B070BD5B
:10033000000801400014014008B56FF0040000F00F
:1003400061F9084B084A1B680849A2FB0323C3F361
:100350004753C3EB431203EB8202D2000B704A8077
:1003600008BD00BF1000002083DE1B4328000020D2
:100370000E4B10B419460E4A0024127802FB00F00E
:1003800058609C601A6842F001021A600B68074AC4
:1003900003F00113012BF9D01368002123F00103AE
:1003A00013605DF8044B9160704700BF10E000E0FF
:1003B000280000200E4B0F4A1946528810B402FB49
:1003C00000F0002458609C601A6842F001021A6034
:1003D0000B68074A03F00113012BF9D013680021C1
:1003E00023F0010313605DF8044B9160704700BF78
:1003F00010E000E0280000203C4B30B418683C4975
:1004000040F0010018605D6882B0294059601968A9
:10041000002021F0847121F48031196019684FF4B3
:100420001F0421F48021196059681A4621F4FE0145
:1004300059609C6000900190196841F48031196006
:1004400003E0009BB3F5A06F09D0136803F40033F9
:100450000193009B01330093019B002BF1D0234BB0
:100460001B6813F4003318BF01230193019B012B78
:1004700006D0204B4FF000629A6002B030BC70474B
:100480001D4A1A4B1068194640F0100010601068A1
:1004900020F003001060106840F0020010605A68FD
:1004A0005A605A685A605A6842F480625A605A68C0
:1004B00022F47C125A605A6842F4E8125A601A68B0
:1004C00042F080721A600B68084A9B01FBD5114606
:1004D000536823F003035360536843F002035360EF
:1004E0004B6803F00C03082BFAD1C2E7001002405E
:1004F0000000FFF800ED00E000200240114A5368C0
:1005000003F00C03082B0ED153685168C3F38343E7
:10051000C90303F1020310D5526892030DD40A4AAD
:1005200002FB03F300E0084B064A08495268C2F395
:1005300003128A5CD3400B617047054A02FB03F348
:10054000F2E700BF0010024000127A000000002015
:1005500000093D0040F0BF60024B40F40030D8601D
:10056000704700BF00ED00E0C3785BB9037801215C
:100570005A09174803F01F03203201FA03F340F829
:1005800022307047134A30B4D2684378D24381781E
:10059000C2F302220F24D440C2F1040503FA05F28B
:1005A00004EA0103017813431B0101F16042DBB24D
:1005B00002F5614282F800330378012203F01F0044
:1005C00003495B09824041F8232030BC704700BFDB
:1005D00000E100E000ED00E021F0604121F07F014A
:1005E000014B08439860704700ED00E0044A13692E
:1005F00019B923EA00001061704718431061704771
:1006000000ED00E0044A042813680CBF43F0040323
:1006100023F004031360704710E000E008B52F4B8F
:1006200098421ED02E4B984225D02E4B98422CD06B
:100630002D4B984233D02D4B98423AD02C4B9842B8
:1006400041D02C4B984200D008BD4FF4807001215E
:1006500000F036FCBDE808404FF48070002100F047
:100660002FBC0420012100F02BFCBDE80840042031
:10067000002100F025BC0820012100F021FCBDE88C
:1006800008400820002100F01BBC1020012100F0D0
:1006900017FCBDE808401020002100F011BC20200C
:1006A000012100F00DFCBDE808402020002100F0F1
:1006B00007BC4020012100F003FCBDE808404020B9
:1006C000002100F0FDBB8020012100F0F9FBBDE816
:1006D00008408020002100F0F3BB00BF000801406B
:1006E000000C0140001001400014014000180140BE
:1006F000001C01400020014008B50120014600F027
:10070000DFFBBDE808400120002100F0D9BB00BF9D
:1007100030B4CD78EB0648BF8B7805F00F0448BFA6
:100720001C430B8813F0FF0F33D0482D026800F0F4
:100730009980282D00F0FF80D90744BF22F00F02D6
:100740002243990744BF22F0F00242EA04125907FB
:1007500044BF22F4706242EA0422190744BF22F423
:10076000704242EA0432D90644BF22F4702242EABF
:100770000442990644BF22F4700242EA0452590628
:1007800044BF22F0706242EA0462190600F19F80C1
:100790000260FF2B31D9482D426830D0282D00F05F
:1007A0009980D90544BF22F00F0222439D0544BF22
:1007B00022F0F00242EA0412590544BF22F47062AA
:1007C00042EA04221D0544BF22F4704242EA043288
:1007D000D90444BF22F4702242EA04429D0444BF7B
:1007E00022F4700242EA0452590444BF22F07062BB
:1007F00042EA04621B0467D4426030BC704703F4D1
:10080000807189B2002940F0D68003F4007189B26A
:10081000002940F0CA8003F4806189B2002940F0C9
:10082000BE8003F4006189B2002940F0B28003F475
:10083000805189B2002940F0C98003F4005189B287
:10084000002940F0BD8003F4804189B2002940F0C6
:10085000C38003F400439BB2002BCDD064F31F721E
:100860000361C9E713F0010140F0328103F0020196
:1008700089B2002940F0268103F0040189B20029E1
:1008800040F01A8103F0080189B2002940F00E817E
:1008900003F0100189B2002940F0028103F0200129
:1008A00089B2002940F0F68003F0400189B20029A6
:1008B00040F0EA8003F0800189B200293FF468AF7C
:1008C00064F31F72016163E764F31F7294E764F3DA
:1008D0001F725DE703F4807189B2002940F0A680A1
:1008E00003F4007189B2002940F09A8003F480611A
:1008F00089B2002940F08E8003F4006189B200299A
:1009000040F0828003F4805189B2002976D103F44B
:10091000005189B200296BD103F4804189B20029CA
:1009200060D103F400439BB2002B3FF465AF64F346
:100930001F72436160E713F0010140F09A8003F0F9
:10094000020189B2002940F08E8003F0040189B2CF
:10095000002940F0828003F0080189B2002976D195
:1009600003F0100189B200296BD103F0200189B294
:10097000002960D103F0400189B200297ED103F043
:10098000800189B200293FF403AF64F31F72416113
:10099000FEE622F4704242EA0432016147E722F4A3
:1009A000706242EA042201613BE722F0F00242EA6F
:1009B000041201612FE722F00F022243016124E7B4
:1009C00022F4700242EA045201613CE722F47022F0
:1009D00042EA0442016130E722F0706242EA0462B6
:1009E000016136E722F0706242EA0462416198E7F1
:1009F00022F4700242EA045241618DE722F470222F
:100A000042EA0442416182E722F4704242EA04323F
:100A1000416177E722F4706242EA042241616BE7A8
:100A200022F0F00242EA041241615FE722F00F0275
:100A30002243416154E722F4700242EA04524161C8
:100A400098E722F4702242EA044241618DE722F4E1
:100A5000704242EA0432416182E722F4706242EA63
:100A60000422416177E722F0F00242EA0412416178
:100A70006BE722F00F022243416160E722F07062CF
:100A800042EA046241617AE722F0706242EA04625B
:100A900001610FE722F4700242EA0452016103E7A8
:100AA00022F4702242EA04420161F7E622F4704225
:100AB00042EA04320161EBE622F4706242EA042267
:100AC0000161DFE622F0F00242EA04120161D3E69E
:100AD00022F00F0222430161C8E600BF4FF6FF710A
:100AE0000222042301808270C37070478368194218
:100AF00014BF012000207047806880B2704700BF9B
:100B0000C368194214BF012000207047C06880B23A
:100B1000704700BF01617047416170470AB9416188
:100B200070470161704700BFC160704741F4803376
:100B30008361816183618369836970474FF6807344
:100B4000054A10B414682340194341EA00101060AC
:100B50005DF8044B704700BF00000140014B186076
:100B6000704700BF1C0020420028194B00F44012BF
:100B7000B4BFDB695B68B2F5401F30B484B21ED0ED
:100B8000C20213D5C0F303450322AA4023EA02039D
:100B900043F0706319B1420D1201944023430C4A93
:100BA0000028B4BFD361536030BC7047420D1201BE
:100BB00004FA02F223EA020343F07063EAE7044D09
:100BC00023F070636A6822F070626A60E2E700BF37
:100BD0000000014001F0FC0303F1804303F5803382
:100BE00001F0030110B489009C680F228A4024EAB6
:100BF00002029A609A68884002439A605DF8044B4A
:100C0000704700BF014B1860704700BFDC002042F6
:100C10000D4B0E4A19684FF41F0041F00101196095
:100C200059680A405A601A6822F0847222F48032AD
:100C30001A601A6822F480221A605A6822F4FE02AE
:100C40005A609860704700BF001002400000FFF833
:100C50000C4BB0F5803F1A6822F480321A601A6893
:100C600022F480221A6008D0B0F5802F04D11A68CF
:100C700042F4A0221A60704770471A6842F480322A
:100C80001A6070470010024082B000230A4A0193A4
:100C900002E0B3F5A06F08D0136813F4003F019B86
:100CA00003F101030193019BF3D0034B1868C0F3D8
:100CB000404002B0704700BF00100240034A136872
:100CC00023F0F80343EAC0001060704700100240B0
:100CD000014B1860704700BF00004242034A53684E
:100CE00023F47C13194308435060704700100240FE
:100CF000014B1860704700BF60004242034A5368CE
:100D000023F0030318435060704700BF00100240F7
:100D1000024B586800F00C00704700BF0010024002
:100D2000034A536823F0F00318435060704700BF34
:100D300000100240034A536823F4E06318435060F4
:100D4000704700BF00100240034A536823F4605309
:100D500043EAC0005060704700100240044A137814
:100D600019B923EA000010707047184310707047DB
:100D700009100240014B1860704700BFD800424282
:100D8000034A536823F4404318435060704700BF40
:100D900000100240064B002201281A701A7005D07C
:100DA000042802D105221A707047704718707047E6
:100DB00020100240014B1860704700BF800442427F
:100DC000024A136A18431062704700BF00100240C5
:100DD000014B1860704700BF3C044242224A10B4E5
:100DE000536803F00C03042B06D0082B26D01BB14C
:100DF0001E4A1346026001E01C4B03601A4A1C495C
:100E00005468C4F303140C5DE34043605468C4F3B6
:100E100002240C5D23FA04F484605468C4F3C224F1
:100E20000C5DE340C36052685DF8044BC2F381324D
:100E30000A44127CB3FBF2F30361704753685168B4
:100E4000C3F38343C90303F1020307D55268920336
:100E500004D4064A02FB03F30360CFE7054A02FB12
:100E600003F30360CAE700BF0010024000127A00DB
:100E70001400002000093D00044A536919B923EA0F
:100E800000005061704718435061704700100240E5
:100E9000044A936919B923EA000090617047184326
:100EA0009061704700100240044AD36919B923EADF
:100EB0000000D06170471843D061704700100240B5
:100EC000044AD36819B923EA0000D0607047184378
:100ED000D060704700100240044A136919B923EA30
:100EE0000000106170471843106170470010024005
:100EF000014B1860704700BF40044242014B18602C
:100F0000704700BF4C004242014B1870704700BF51
:100F1000071002404309012B0BD0022B094B0CBFD9
:100F20001A6A5A6A00F01F0322FA03F000F0010067
:100F30007047044B1A6800F01F0322FA03F000F018
:100F40000100704700100240024A536A43F0807368
:100F50005362704700100240034B9B68184214BF55
:100F600001200020704700BF00100240014B1870A4
:100F7000704700BF0A100240844641EA000313F0A4
:100F8000030349D1403A23D30B6803604B684360A5
:100F90008B688360CB68C3600B6903614B694361F5
:100FA0008B698361CB69C3610B6A03624B6A4362DD
:100FB0008B6A8362CB6AC3620B6B03634B6B4363C5
:100FC0008B6B8363CB6BC36340304031403ADBD2E1
:100FD00030320BD30B6803604B6843608B688360CF
:100FE000CB68C36010301031103AF3D20C3205D305
:100FF00051F8043B40F8043B043AF9D2043208D0DB
:10100000D2071CBF11F8013B00F8013B01D30B884C
:1010100003806046704700BF082A13D38B07B1D006
:1010200010F00303AED0C3F10403D21ADB071CBFD8
:1010300011F8013B00F8013BA4D331F8023B20F842
:10104000023B9FE7043AD9D3013A11F8013B00F87B
:10105000013BF9D20B7803704B7843708B78837027
:101060006046704770B4840746D0541E002A41D0B1
:10107000CDB2034602E0621EE4B3144603F8015BFE
:101080009A07F8D1032C2ED9CDB245EA05250F2CAD
:1010900045EA054519D9264603F11002103E0F2EE8
:1010A00042F8105C42F80C5C42F8085C42F8045CC0
:1010B00002F11002F2D8A4F1100222F00F0204F0A3
:1010C0000F041032032C13440DD91E462246043A55
:1010D000032A46F8045BFAD8221F22F003020432E6
:1010E000134404F003042CB1C9B21C4403F8011BDF
:1010F000A342FBD170BC704714460346C2E700BF51
:1011000000000000000000000102030406070809B7
:1011100000A24A04000000000102030401020304CB
:08112000060708090204060895
:04000005080001E509
:00000001FF
